:020000040801F1
:10100000E8EC0020C5110108712F010855230108E3
:10101000F3230108491801083D3C010800000000C5
:10102000000000000000000000000000E13701089F
:10103000992201080000000037310108E337010858
:10104000DF110108DF110108DF110108DF110108BC
:10105000DF110108DF1101089D220108BD220108EE
:10106000DF110108DD220108FD220108DF1101085E
:10107000DF110108DF110108DF110108DF1101088C
:10108000DF110108DF110108DF110108DF1101087C
:10109000DF110108DF110108DF1101081D2301081C
:1010A000DF110108C1380108DF110108DF11010853
:1010B000DF110108DF110108DF110108DF1101084C
:1010C000DF110108DF110108DF110108DF1101083C
:1010D000DF110108413A0108C13A0108BD3B01088E
:1010E000DF110108A1370108DF110108DF11010834
:1010F000193A0108DF110108DF110108DF110108A9
:10110000DF110108D9370108DF110108DF110108DB
:10111000DF110108DF11010895390108B53901080F
:10112000DF110108DF110108DF110108DF110108DB
:10113000DF110108DF110108DF110108DF110108CB
:10114000DF110108DF110108DF110108DF110108BB
:10115000DF110108DF110108DF110108DF110108AB
:10116000DF110108DF110108DF110108DF1101089B
:10117000DF110108DF110108DF1101080000000084
:10118000DF110108DF110108DF110108DF1101087B
:10119000DF110108DF110108DF1101080000000064
:1011A000DF110108DF110108DF110108DFF810D09D
:1011B00000F064FA0048004735960108AFF300805C
:1011C000E8EC00200648804706480047FEE7FEE7B7
:1011D000FEE7FEE7FEE7FEE7FEE7FEE7FEE7FEE7E7
:1011E000ED370108AD11010840EA01039B0703D068
:1011F00009E008C9121F08C0042AFAD203E011F856
:10120000013B00F8013B521EF9D27047D2B201E017
:1012100000F8012B491EFBD270470022F6E710B5FB
:1012200013460A4604461946FFF7F0FF204610BD54
:1012300010B5044604E00B7800F8013B03B1491CEB
:10124000521EF8D2204610BD421C10F8011B002986
:10125000FBD1801A704700F0004230F000400AD005
:10126000C10D01F56071C0F3160042EA0151C208D8
:1012700040071143704700200146704730B50B46C8
:10128000014600202022012409E021FA02F59D42B6
:1012900005D303FA02F5491B04FA02F52844151E8A
:1012A000A2F10102F1DC30BD2DE9F05F054600201E
:1012B00092469B4688460646814640241BE02846C7
:1012C00041464746224600F0FAF953465A46C01AAC
:1012D000914110D311461846224600F0E1F92D1A2B
:1012E00067EB01084F4622460120002100F0D8F9A3
:1012F00017EB00094E41201EA4F10104DFDC484633
:1013000031462A464346BDE8F09F2DE9FE4F804610
:1013100081EA0300C00F0C46009021F0004123F049
:101320000045B8EB0200A94105D24046214690464F
:101330001C460B46024623F00040104347D0270DC1
:10134000C7F30A00C3F30A510290401A01904028E3
:101350006BDAC3F3130040F4801B0098924620B16F
:101360000023D2EB030A63EB0B0B01985946C0F143
:101370004002504600F094F906460D465046594644
:10138000019A00F0ACF910EB08006141002487EAF3
:10139000115284EAE7731A4340D0009A62B3019A6B
:1013A000012A4FEA075215DC001B61EB02014FF0E6
:1013B000004202EA0752CDE90042001C41F58011CB
:1013C00032462B4600F0ACF903B0BDE8F08F404642
:1013D0002146F9E7001B61EB0201001C41F5801377
:1013E00000185B412018A2F5001747EB030140EA03
:1013F000D570B6196D4111E06D084FEA360645EA21
:10140000C0754FEA0752001B61EB0201001C41F559
:10141000801149084FEA30000019514132462B46ED
:1014200003B0BDE8F04F00F06CB900980122400015
:101430000023D0EB020263EBE073009821464FEAF1
:10144000E074B8EB000061EB0401E9E783F00043CE
:101450005BE781F0004158E72DE9FE4F81EA030484
:1014600004F0004421F0004100944FF0000B23F001
:10147000004350EA01045ED052EA03045BD0C3F398
:101480000A54C1F30A552C44A4F2F3340194A0FB8E
:101490000254C1F3130141F48011C3F3130343F465
:1014A000801301FB024400FB034E840A970A44EABE
:1014B000815447EA8357A4FB076802958D0A05FB10
:1014C00007854FEA932C04FB0C542705029D4FEA35
:1014D000065847EA1637B5EB08056EEB070C870E82
:1014E000920E47EA811742EA8312A7FB0201B6EB8C
:1014F0000B0164EB00042B0D43EA0C335E1844EB44
:101500001C50DA465146E7FB0201C5F313044FEACB
:101510000B3343EA14534FEA0432019C43EA0603B7
:10152000A4F10C040294009CCDE900B400F0F8F89A
:1015300003B0BDE8F08F00200146F9E72DE9F04D3A
:1015400081EA030404F0004B21F0004514464FF0FB
:10155000000A23F0004150EA050220D054EA0102BB
:101560001DD0C5F30A570246C5F31303C1F3130098
:10157000C1F30A5640F4801543F48013A7EB060824
:10158000101BD64608F2FD3873EB050002D308F1B4
:10159000010801E092185B41B8F1000F03DA002066
:1015A0000146BDE8F08D00204FF4801106468446C8
:1015B0000EE0171B73EB050705D3121B63EB050346
:1015C00006434CEA010C49084FEA300092185B418F
:1015D00050EA0107EDD152EA030012D082EA04007A
:1015E00083EA0501084305D0101BAB4106D2012256
:1015F000002306E000224FF0004302E06FF00102FA
:1016000053101AEB06004CEB085110EB0A0041EBAB
:101610000B01BDE8F04D00F074B8C1F30A52C1F3FC
:10162000130140F2FF3341F480119A4202DA0020A4
:101630000146704740F233439A42A2F2334202DC41
:10164000524200F03CB800F02BB8000030B5041E48
:1016500071F1000404DB4FF00044404264EB0101EF
:10166000141E73F1000405DB1C464FF00043524288
:1016700063EB0403994208BF904230BD064C074D0E
:1016800006E0E06840F0010394E807009847103452
:10169000AC42F6D3FFF78EFD9CDE0108BCDE0108EC
:1016A000202A04DB203A00FA02F100207047914022
:1016B000C2F1200320FA03F3194390407047202A17
:1016C00004DB203A21FA02F00021704721FA02F3EC
:1016D000D040C2F120029140084319467047202AA9
:1016E00006DBCB17203A41FA02F043EAE07306E04A
:1016F00041FA02F3D040C2F120029140084319465A
:10170000704710B5141E73F1000408DA401C41F153
:10171000000192185B411A4301D120F0010010BD75
:101720002DE9F04D92469B4611B1B1FA81F202E0EB
:10173000B0FA80F220329046FFF7B2FF04460F461F
:1017400040EA0A0041EA0B0153465A46084313D0C7
:10175000114653EA010019D0C8F140025046FFF784
:10176000AEFF05460E46504659464246FFF798FFE3
:10177000084305D0012004E020463946BDE8F08D3D
:101780000020054346EAE0762C4337430A98630578
:10179000E40AA0EB08000022FD0A44EA47540A309C
:1017A00002D500200146E9E7010510196941DDE98C
:1017B000084500196941BDE8F04DA2E770B58C18E5
:1017C00010F8015B15F0070301D110F8013B2A1155
:1017D00006D110F8012B03E010F8016B01F8016B42
:1017E0005B1EF9D12B0705D40023521E0DD401F83E
:1017F000013BFAE710F8013BCB1A921C03E013F807
:10180000015B01F8015B521EF9D5A142D8D300203B
:1018100070BD0146302905DB392903DCA1F1300018
:10182000C0B27047412905DB462903DCA1F137002E
:10183000C0B2F6E7612905DB662903DCA1F1570098
:10184000C0B2EEE7FF20ECE700BFFEE770B586B060
:1018500004460E46154614220DA101A8FFF7C4FC4C
:10186000002010E0215C01AA02EB1111097805F8B3
:101870001010215C01F00F01515C012202EB4002CB
:10188000A954411C88B2B042ECDB06B070BD000028
:1018900030313233343536373839414243444546A6
:1018A000000000001CB501200949087004F0A6FBE7
:1018B000002007490870FF200190012001AB40F291
:1018C0000362022100900348008801F001FF1CBD63
:1018D000E8010020FA01002010B50120034908703A
:1018E00004F0C8FB00200149087010BDE801002089
:1018F0001CB504462078012802D0022808D103E054
:1019000001200B49487504E002200949487500E0B0
:1019100000BF00BFFF200190012001AB40F2016237
:10192000022100900348008801F0D2FE1CBD000097
:10193000A4010020FA0100200EB5002001900290C1
:101940000C48D0ED020AB0EE600A01A807F0B2FA26
:101950000848D0ED030AB0EE600A02A807F0AAFA20
:10196000082001ABC201022100900348008801F069
:10197000AFFE0EBDA4010020FA0100201CB500201E
:1019800001900948D0ED020AB0EE600A01A807F004
:1019900091FA042001AB40F2014202210090034879
:1019A000008801F095FE1CBDA4010020FA01002072
:1019B0001CB5002001900948D0ED030AB0EE600A82
:1019C00001A807F077FA042001AB40F2024202219D
:1019D00000900348008801F07BFE1CBDA40100209C
:1019E000FA010020704700001FB50446E0788DF82A
:1019F0000800A0788DF8090060788DF80A0020783A
:101A00008DF80B00029803909DED030A0B4880EDC2
:101A1000020AD0ED020AB0EE600A022008F064F972
:101A2000FF200190012001AB40F211420221009001
:101A30000348008801F04CFE1FBD0000A4010020F7
:101A4000FA0100201FB50446E0788DF80800A07860
:101A50008DF8090060788DF80A0020788DF80B0069
:101A6000029803909DED030A0B4880ED030AD0ED28
:101A7000030AB0EE600A032008F036F9FF20019057
:101A8000012001AB40F2124202210090034800887D
:101A900001F01EFE1FBD0000A4010020FA0100207D
:101AA000704700001FB500211B480AF0DDFF1A48EF
:101AB0000BF0A3F80120194981F8300000200190B3
:101AC0000290039004F0A0FD0446200E8DF804005F
:101AD000200C8DF80500200A8DF80600E0B28DF884
:101AE00007000E48D0ED080AB0EE600A02A807F021
:101AF000E1F90A48D0ED090AB0EE600A03A807F040
:101B0000D9F90C2001AB40F20232022100900448C6
:101B1000008801F0DDFD1FBD00040140A40100208C
:101B2000FA0100201CB50A480BF062F800200949B0
:101B300081F83000FF200190012001AB40F2033218
:101B4000022100900448008801F0C2FD1CBD000085
:101B500000040140A4010020FA0100201CB5FF2070
:101B60000190012001AB40F2AA3202210090054809
:101B7000008801F0ADFD03F005FE112102A004F084
:101B800095FC1CBDFA010020696E737472756D6559
:101B90006E742077616B6575700000007CB504463B
:101BA00000256078217840EA0125284603F06AFD87
:101BB000FF200190012001AB40F201320221009090
:101BC0000248008801F084FD7CBD0000FA0100207D
:101BD0001CB50948D0ED080AB0EE600A01A807F06C
:101BE00069F9042001AB40F2012202210090034870
:101BF000008801F06DFD1CBDA4010020FA01002049
:101C00001CB50948D0ED090AB0EE600A01A807F03A
:101C100051F9042001AB40F2022202210090034856
:101C2000008801F055FD1CBDA4010020FA01002030
:101C300000B52DED068B87B02048D0ED0A0AB0EE36
:101C4000600A06A807F036F9042006AB40F221220C
:101C5000022100901A48008801F03AFD174890EDE3
:101C60000F0A10EE101A0846FFF7F5FA41EC180BB0
:101C7000124890ED0E0A10EE101A0846FFF7EBFA24
:101C800041EC190B0D4890ED0D0A10EE101A0846A4
:101C9000FFF7E1FA41EC1A0B084890F84000049075
:101CA0008DED028B8DED009B53EC1A2B05A001F0FE
:101CB000EDFF07B0BDEC068B00BD0000A4010020C5
:101CC000FA01002069303A20252E33666D412C2020
:101CD00076303A20252E3366562C2076313A202550
:101CE0002E3366562C2069305F62726F6B656E3AD8
:101CF0002025640D0A0000001FB50446E0788DF829
:101D00000800A0788DF8090060788DF80A00207826
:101D10008DF80B00029803909DED030A0B4880EDAF
:101D2000000AD0ED000AB0EE600A002007F0DCFFE8
:101D3000FF200190012001AB40F2412202210090DE
:101D40000348008801F0C4FC1FBD0000A40100206E
:101D5000FA0100201FB50446E0788DF80800A0784D
:101D60008DF8090060788DF80A0020788DF80B0056
:101D7000029803909DED030A0B4880ED010AD0ED17
:101D8000010AB0EE600A012007F0AEFFFF200190CB
:101D9000012001AB40F2422202210090034800885A
:101DA00001F096FC1FBD0000A4010020FA010020F4
:101DB0001CB504462078144908750846007D0128A2
:101DC00004D0022806D003280CD107E0012004F03B
:101DD0004BFF0BE0032004F047FF07E0052004F071
:101DE00043FF03E0012004F03FFF00BF00BFFF20DE
:101DF0000190012001AB40F26122022100900348D2
:101E0000008801F065FC1CBDA4010020FA0100203F
:101E1000704700001CB5FF200190012001AB40F28B
:101E20000252022100900248008801F051FC1CBDC2
:101E3000FA0100201CB5FF200190012001AB40F207
:101E40000152022100900D48008801F041FC0B482E
:101E500000880AF0DBFB01200AF0F4FB4FF6FF7468
:101E600000BF062106480BF065F820B9201EA4F13A
:101E700001018CB2F5D107F04BFD0000FA01002002
:101E8000004400401CB50A48008800128DF8040088
:101E9000074800788DF805000020034648F68802C0
:101EA000052100900248008801F012FC1CBD0000D2
:101EB000FA0100201CB5FF2001904FF6FF7407F0D7
:101EC000CBFE01200E49087004F098F800200C4960
:101ED0000870012001AB4FF4817202210090094883
:101EE000008801F0F5FB00BF062107480BF022F83F
:101EF00020B9201EA4F101018CB2F5D107F008FD34
:101F0000E8010020FA010020004400401CB51448FC
:101F10000068B0F5965F09D0B0F5165F09D0B0F54E
:101F2000964F09D0B0F5E13F0CD108E011200190A7
:101F300009E01220019006E01320019003E0142034
:101F4000019000E000BF00BF012001AB4FF4897297
:101F5000022100900348008801F0BAFB1CBD00007C
:101F6000D4000020FA0100201CB50A4800880012A5
:101F70008DF80400074800788DF80500022001ABB9
:101F800040F21112014600900248008801F0A0FBC7
:101F90001CBD0000FA0100202DE9F04391B000249F
:101FA0004FF4803507F0C2F806460FF2BC084FF038
:101FB0000C09402101A8FFF730F92F4800880212D0
:101FC0002146641C01A842542B4802782146641C17
:101FD00001A8425402222146641C42542A0E214682
:101FE000641C42542A0C2146641C4254C5F3072247
:101FF0002146641C42542146641C4554320E20463E
:10200000611CCCB201A90A54C6F307422046611CE8
:10201000CCB201A90A54C6F307222046611CCCB2F7
:1020200001A90A542046611CCCB201A90E54002714
:102030000CE04F4502DA18F8070000E000202146C6
:10204000621CD4B201AA5054781CC7B20C2FF0DB2A
:1020500001AB40F20312022107480094008801F00E
:1020600037FB11B0BDE8F0833230323630313330D7
:102070003135323800000000FA0100201CB504F0B0
:10208000C3FA0446200E8DF80400200C8DF80500DC
:10209000200A8DF80600E0B28DF80700042001AB9D
:1020A0004FF48372022100900248008801F010FB77
:1020B0001CBD0000FA0100201CB507F037F80446EB
:1020C000200E8DF80400200C8DF80500200A8DF8F4
:1020D0000600E0B28DF80700042001AB4FF48272D5
:1020E000022100900248008801F0F2FA1CBD0000B5
:1020F000FA0100201CB5FF200190012001AB40F245
:102100000112022100900948008801F0E1FA4FF61F
:10211000FF7400BF062106480AF00CFF20B9201EFC
:10212000A4F101018CB2F5D107F0F2FBFA01002015
:10213000004400401CB50446FF200190012001AB83
:102140004FF4D172022100901848008801F0C0FAC3
:102150002078112806D0122809D013280CD0142872
:1021600014D10EE04FF496501149086013E04FF47B
:1021700016500F4908600EE04FF496400C49086075
:1021800009E04FF4E1300A49086004E04FF496405A
:102190000749086000BF00BF0548006807F094FDCC
:1021A0000348006804F0B8F91CBD0000FA010020E3
:1021B000D40000207CB505466878297840EA0124DF
:1021C0004FF6FF70844212D08CB109480480008819
:1021D00007F0A0FDFF200190012001AB40F2A11209
:1021E000022100900248008801F072FA00BF7CBD15
:1021F000FA0100207CB5044620780006617840EAA8
:102200000140A17840EA0120E17840EA010500217F
:10221000284604F085FB01280CD1FF200190012005
:1022200001AB40F20512022100900348008801F042
:102230004FFA00BF7CBD0000FA01002001463029A2
:1022400005DB392903DCA1F13000C0B27047412918
:1022500005DB462903DCA1F13700C0B2F6E76129AE
:1022600005DB662903DCA1F15700C0B2EEE7FF20D1
:10227000ECE7000070B505460E46012005490870E0
:10228000002404E0285D01F03FF9601C84B2B442F0
:10229000F8DB70BDFE0100207047000010B5012082
:1022A00006F01CFA38B1012006F012FA0248008844
:1022B000401C0149088010BD50B9002010B5022013
:1022C00006F00CFA38B1022006F002FA0248408803
:1022D000401C0149488010BD50B9002010B50820AD
:1022E00006F0FCF938B1082006F0F2F902488088BF
:1022F000401C0149888010BD50B9002010B5102045
:1023000006F0ECF938B1102006F0E2F90248C08876
:10231000401C0149C88010BD50B9002010B52020D4
:1023200006F0DCF938B1202006F0D2F9084800891F
:10233000401C07490881402006F0D0F938B1402000
:1023400006F0C6F902484089401C0149488110BD89
:1023500050B9002000BFFEE72DE9F04706460C46C5
:102360001746204604EBD0714910A4EB410119B186
:102370004FF0FF30BDE8F087002519E016F8150092
:10238000FFF75CFF8046012101EB4501705CFFF720
:1023900055FF8146B8F1FF0F02D0B9F1FF0F02D10E
:1023A0004FF0FF30E6E749EA08107855681C85B21F
:1023B00004EBD471B5EB610FE0DB214604EBD17087
:1023C0004010D7E770B505460C4607F061F8782055
:1023D00007F0BCF807F090F8284607F0B7F807F0C8
:1023E0008BF8204607F0B2F807F086F807F06CF893
:1023F00070BD00BFFEE7000030B52DED068B9FB02D
:102400003748007808B1012000E000200446354834
:1024100090F83000A0420ED03CB1002132480AF0C2
:1024200023FB31480AF0E9FB02E02F480AF0E0FB09
:102430002C4880F830402A48407808B1012000E05C
:102440000220284948752648807850B10020244948
:10245000887001202549087003F0D0FD0020234931
:1024600008701F48C078B0B300201D49C8701D48CF
:1024700090ED0A0A10EE101A0846FEF7ECFE41EC49
:10248000180B184890ED090A10EE101A0846FEF7CE
:10249000E2FE41EC190B134890ED080A10EE101AF9
:1024A0000846FEF7D8FE41EC1A0B04F0ADF80546DD
:1024B0008DED048B8DED029B8DED00AB2B460CA2B8
:1024C000602107A801F0F2FB07A90FA004F054FB5C
:1024D0001049087000BF1FB0BDEC068B30BD000076
:1024E000E4E00020A401002000040140E8010020F5
:1024F000256C752C252E33662C252E33662C252E27
:1025000032660D0A0000000053414D504C452E43E9
:1025100053560000F60100202DE9F04F2DED028BFF
:1025200081B00021744808F017F8B0EE408A734873
:1025300090ED000AF0EE400AB0EE480A06F0ADFC5D
:1025400038B16E4880ED008AB0EE480A002007F0EE
:10255000CBFB0221684807F0FFFFB0EE408A6748D6
:1025600090ED010AF0EE400AB0EE480A06F095FC44
:1025700038B1624880ED018AB0EE480A012007F0C8
:10258000B3FB04215C4807F0E7FFB0EE408A5B48EC
:1025900090ED020AF0EE400AB0EE480A06F07DFC2B
:1025A00038B1564880ED028AB0EE480A022007F0A2
:1025B0009BFB0621504807F0CFFFB0EE408A4F4802
:1025C00090ED030AF0EE400AB0EE480A06F065FC12
:1025D00038B14A4880ED038AB0EE480A032007F07C
:1025E00083FB4548B0F81090B9F5805F01DB40F6F9
:1025F000FF790021424804F073FF484502D0484665
:1026000003F040F83C48448A012C15DB032C13DC12
:102610003A48007DA0420FD0032C01D1052004E0F0
:10262000022C01D1032000E00120009033490C75F9
:10263000009804F019FB00BF2F48B0F814A0BAF1BD
:10264000010F02D0BAF1020F02D12C4981F815A076
:102650002948C58A65B14FF6FE70854208D82948D9
:102660000088854204D027480580284607F052FBA1
:102670002148468B56B1F72E08D823480078864269
:1026800004D021490E70F0B207F054FB1A49088BB0
:1026900004F08EFD07462FB11C480068874201D028
:1026A0001B4807600E21144807F061FF8346BBF109
:1026B000000F08D00021584604F032F900220E2104
:1026C0000D4807F0C5FF0C48B0F8228045F2012004
:1026D000804505D0401C804502D0401C804502D179
:1026E0000C48A0F8008000200349488401B0BDECEC
:1026F000028BBDE8F08F0000E4DE0020A401002082
:1027000000740040FA010020FC010020D4000020E9
:10271000F0010020F401002010B502460B46002114
:10272000002004E0145C0C44E1B2441CA0B29842C6
:10273000F8DB4842C0B210BD2DE9F8430746884691
:1027400097F8009055480078814505D0B9F1000F01
:1027500002D00020BDE8F88300F06CFA7D1CB8F8C8
:102760000000401E80B200902E78182E5CD2DFE868
:1027700006F05B0C12181E242A42485B5B5B5B5B15
:102780005B30364E5B5B5B5B5B3C6946284605F025
:1027900079FB04464AE06946284605F0CAFB044630
:1027A00044E06946284605F01AFC04463EE06946C6
:1027B000284605F05AFC044638E06946284605F0EC
:1027C00019FD044632E06946284605F04BFD0446F3
:1027D0002CE06946284605F066FD044626E0694679
:1027E000284605F0A8FD044620E06946284605F085
:1027F00082FC04461AE06946284600F0BAF804460E
:1028000014E06946284600F0A1F804460EE00023D3
:102810001A4601212148007805F0B8FE694628468D
:1028200005F0D4FC044601E0012400BF00BFBCB9A0
:102830000F2E10D004DC052E0CD0062E0ED104E095
:10284000102E03D0172E09D101E000BF00BFFFF703
:1028500063FE04E000BFFFF7CFFD00E000BF00BF54
:10286000B9F1000F01D1002074E77CB10020009085
:1028700046F08001BDF80020501C80B20090A954A1
:10288000BDF80010481C80B200906C54BDF80000E8
:10289000401CA8F8000001205CE70000FC010020BB
:1028A00070B52148006818B92048008800B970BD8B
:1028B00000BF1F4800780028FBD11B48006850B1BA
:1028C00019480468002018490860204607F0FCF900
:1028D000204603F021FE1548008818B313480588E8
:1028E0000020124908806FF4A440284420B1012838
:1028F00005D0022814D109E007F00AF811E002F02F
:1029000041FF11210BA003F0D1FD0AE00E48008821
:1029100009F07CFE012009F095FE06F0F9FF00E0C9
:1029200000BF00BF00BFC2E7F0010020F40100209B
:10293000DC000020696E737472756D656E742077AB
:10294000616B657570000000FA01002010B5024649
:102950000B461888052801D0032010BD90785478C4
:1029600040EA042109B10A2901D10020F5E701203C
:10297000F3E770B505460C462088012801D00320F6
:1029800070BD00F005F86870022020800020F7E795
:1029900000200F49097809B140F001000C4949783D
:1029A00009B140F002000A49897809B140F00400F9
:1029B0000749C97809B140F008000549097909B10A
:1029C00040F010000249497909B140F020007047F9
:1029D000E4E200202DE9F04F89B080468946B9F144
:1029E000090F02DA09B0BDE8F08FA9F1030085B242
:1029F000284605EBD0714910A5EB410101B1F1E783
:102A0000284605EBD071C1F34F04032C02DBB4F56B
:102A1000807F00DDE6E74FF0000B22E0012101EBB3
:102A20004B0118F80100FEF7F4FE0190012101EBC3
:102A30004B01491C18F80100FEF7EBFE00900198CD
:102A4000FF2802D00098FF2800D1CBE7DDE9000184
:102A500040EA0110394901F80B000BF101001FFA9F
:102A600080FBA345DADB601E81B23448FFF754FED9
:102A70008246601E3149095C089108998A4500D058
:102A8000B0E702202E490870601E80B2079007A9A7
:102A90002A48FFF751FE00B9A4E7BDF81C00401C0E
:102AA000B0F5807F00D99DE7BDF81C102348FFF7E3
:102AB00033FE2249BDF81C208854BDF81C00401C80
:102AC00087B2012000EB470086B2B01CB0F5027F50
:102AD00000D987E714221BA102A8FEF785FB3A2044
:102AE0001D490870002017E01449095C02AA02EB96
:102AF00011110978012202EB4002174B99540F493A
:102B0000095C01F00F0102AA525C012101EB4001B6
:102B1000491C5A54411C88B2B842E5DB0D200E49CD
:102B200088550A210C4A701C1154B01C81B2104601
:102B300003F0BCFCFFF7B4FE00BF53E7BCD7002096
:102B4000FE010020303132333435363738394142D6
:102B50004344454600000000BCD8002070B5044640
:102B60000D46092D0FDB20783A280CD1A81E205CD9
:102B70000D2808D1681E205C0A2804D12946204669
:102B8000FFF728FF03E02946204600F001F870BD5A
:102B90002DE9F84305460C46042C02DBB4F5807F92
:102BA00001DDBDE8F883A01E81B228460AF096F840
:102BB0000646A01E295C601E285C41EA00284645A6
:102BC00000D0EEE7022019490870A01E80B20090E4
:102BD000BDF8002029461648FEF706FB6946144852
:102BE000FFF7AAFD00B9DCE7BDF80000801CB0F5D6
:102BF000807F00D9D5E7BDF800100D480AF06EF8C7
:102C000007460B49BDF800208F543912084ABDF819
:102C10000000401C1154BDF80000801C81B2104619
:102C200003F044FCFFF73CFE00BFBAE7FE010020C2
:102C3000BCD700202DE9F04391B0C048D0ED080A80
:102C4000B0EE600A0021BE4807F09BFCBB48D0ED07
:102C5000090AB0EE600A0221B94807F092FCB748B1
:102C6000D0ED0A0AB0EE600A0421B54807F089FCED
:102C7000B248D0ED060AB0EE600A0621B04807F06F
:102C800080FCAE48D0ED070AB0EE600A0821AC48DF
:102C900007F077FCA948D0ED080AB0EE600ADFED36
:102CA000A90A0A21A64807F07FFCA448D0ED090A2A
:102CB000B0EE600ADFEDA30A0B21A14807F074FC17
:102CC0009E48D0ED0A0AB0EE600AF2EE040A0C212A
:102CD0009B4807F069FC03F097FC064632460D213D
:102CE000974807F0B5FC06F021FA064632460F2158
:102CF000934807F0ADFC03F095F904468F4890F82F
:102D000030008F4948848D48407D88848B48007D01
:102D1000C8848D48006802F00DF9894908858B4800
:102D2000008848858A48007888858A480078C88560
:102D30000C868948007848868048D0ED0D0AB0EEB0
:102D4000600A1A217E4807F01CFC7C48D0ED0E0A70
:102D5000B0EE600A1C217A4807F013FC7748D0EDEA
:102D60000F0AB0EE600A1E21754807F00AFC73488E
:102D700090F840007249A1F840007048D0ED0D0A6B
:102D8000B0EE600ADFED6F0A21216D4807F00CFC00
:102D90006A48D0ED0E0AB0EE600ADFED6A0A222121
:102DA000674807F001FC6548D0ED0F0AB0EE600AF5
:102DB000DFED640A2321624807F0F6FB6748058CC3
:102DC000FCB1A5421DD2601E461B4FF4F82000EB5B
:102DD0008619402201A9484602F07AFD00218DF8AB
:102DE000431001205649A1F8500029215448019A66
:102DF00007F02EFC03AB1C222B21514807F0FCFBF3
:102E00000EE000204E49A1F85000002229214C4834
:102E100007F01EFC52A31C222B21494807F0ECFBB3
:102E20004648D0ED000AB0EE600A00214B4807F09A
:102E3000A8FB4248D0ED010AB0EE600A02214748E3
:102E400007F09FFB3D48D0ED020AB0EE600A042176
:102E5000424807F096FB3948D0ED030AB0EE600A0D
:102E600006213E4807F08DFB00213E4804F038FB68
:102E70003A4908823148007D48823048407D888246
:102E800032480088C8823048006802F053F833495D
:102E900008832F480078488300220E212F4807F02E
:102EA000D7FB00202D494884244890F8300008B111
:102EB000012000E000202C4908702048407D0128B6
:102EC00000D100E00020284948701C4890ED080A15
:102ED000D0ED020AB4EEE00AF1EE10FA01DD0120B5
:102EE00000E000200746154890ED090AD0ED030ADE
:102EF000B4EEE00AF1EE10FA01DD012000E000205E
:102F000080461A48077080F801800C4890F830001D
:102F100008B1012000E00020144988700CB10120A4
:102F200000E000201149C8700B4800780871034880
:102F300090F84000487111B0BDE8F083A401002072
:102F4000E4DA00200000C842D4000020FA0100208A
:102F5000FC010020FD010020F6010020E4DE00203D
:102F60000000000000740040E4E00020E4E20020E3
:102F70007047000010B5002807DA0A07140E054A4A
:102F800000F00F031B1FD45403E00A07130E024A7C
:102F9000135410BD18ED00E000E400E070B500240B
:102FA00015E004F1B001C8B200F0B7F8002000F05D
:102FB000B4F8102000F0B1F8002504E0002000F083
:102FC000B3F8681CC5B2802DF8DB601CC4B2042CB9
:102FD000E7DB70BD0FB470B592B005460E461446DF
:102FE0001AA80190402102A8019B199A00F078FECE
:102FF00000200190234602AA3146284600F064F8DA
:1030000012B070BC5DF814FB70B504460D4605F1B6
:10301000B001C8B200F081F8102141EA141000F0AC
:103020007CF804F00F0000F078F870BD2DE9F0474F
:1030300007460E469046994600250024A8F1200038
:10304000C5B27F2F02DD0027701CC6B2B9F1100F88
:1030500022D131463846FFF7D7FF002407E004EBC2
:103060000511174A505C00F05FF8601CC4B2082CD0
:10307000F5DB701CC1B23846FFF7C6FF002408E03C
:1030800004EB051108310E4A505C00F04DF8601C4D
:10309000C4B2082CF4DB11E031463846FFF7B4FF28
:1030A000002409E005EB4501064A02EB4101085DF9
:1030B00000F03AF8601CC4B2062CF3DBBDE8F087E0
:1030C000A6D201087ED001082DE9F04704460D463E
:1030D000164698460027B8F1100F01D1022000E0F3
:1030E0000120814613E0782C03DD002405EB090064
:1030F000C5B2032D00DD0DE0F25D434629462046B2
:10310000FFF794FF04F10800C4B2781CC7B2F05D69
:103110000028E8D100BFBDE8F08710B5044621467D
:103120000020FFF74FF910BD10B50446214640209E
:10313000FFF748F910BD70472DE9F84F074689465B
:10314000F878B97840EA01283C79B879797940EA89
:10315000012AFD7997F808B0002D02DD07F109007A
:1031600000E000200646BBF1020F01D0BDE8F88F59
:10317000D8480088804504D04FF6FF70804500D0C5
:10318000F4E705F10D00484509D0002003464EF64E
:10319000EE62FF210090404600F09AFAE6E7012C2B
:1031A0000FD0022C0DD0052C0BD0FF2C09D0002005
:1031B00003464EF6EE62FF210090404600F088FA8A
:1031C000D4E7C54890F83000012804D140F203301C
:1031D000824500D0CAE740F20331AAEB01008A45DC
:1031E0006FD036DCBAF5D17F6CD019DC40F2051116
:1031F000AAEB01008A4570D009DCAAF20110C8B31D
:10320000012865D002286BD0032868D16DE0012821
:1032100070D00C286FD00D286ED09C28F5D17EE0A0
:1032200040F24221AAEB01008A456FD00ADCAAF2E3
:10323000012000286BD001286AD0202869D04028BE
:10324000E3D1A2E01F2873D0BF2872D0C028DCD100
:10325000BEE0B0F5FF7F6DD017DCB0F5807F6AD09F
:1032600009DCA72868D0FD2867D0FE286FD0FF288A
:10327000CBD1C6E027E0B0F5877F69D0A0F20F1070
:1032800000286ED00128C0D1D5E0B0F5407F69D0CC
:103290000BDCA0F2FF1000286FD001286ED0FF28B1
:1032A0006DD0B0F5807FB0D1E3E0A0F2013000280E
:1032B00074D0012873D0A0F57940FB380028A4D140
:1032C000F5E08AE03AE0012C01D1FEF713FFFDE0C2
:1032D000012C01D1FEF7EEFDF8E00EE000E0EBE09E
:1032E000012C01D1FEF758FEF0E0012C01D1FEF7D0
:1032F000E3FEEBE00EE02CE030E0012C05D1042DE4
:1033000003DB16B13046FEF775FFDFE048E02AE048
:103310002EE035E0012C01D1FEF7B0FED6E0012C05
:1033200005D1022D03DB16B13046FEF743FFCDE099
:103330003FE044E088E069E054E058E0012C05D12A
:10334000012D03DB16B13046FEF7F4FEBEE053E07C
:103350005FE0012C01D1FEF707FEB7E0FEF7D6FDD6
:10336000B4E05FE08AE0012C01D1FEF731FCADE072
:10337000012C01D1FEF744FCA8E06AE06EE072E0A7
:10338000012C01D1FEF754FCA0E0012C05D1042D45
:1033900003DB16B13046FEF7AFFC97E073E07CE04C
:1033A000012C05D1042D03DB16B13046FEF7D2FC0B
:1033B0008CE0012C02D13046FEF7FAFC86E0012CAD
:1033C00005D1022D03DB16B13046FEF7E7FB7DE0A9
:1033D000012C01D1FEF766FB78E0012C01D1FEF74C
:1033E000A1FB73E0012C01D1FEF7B8FB6EE0012CCC
:1033F00001D1FEF7A1FA69E0012C01D1FEF7BEFA76
:1034000064E0012C01D1FEF7D3FA5FE0FEF7EAFA9F
:103410005CE0012C05D1042D03DB16B13046FEF72C
:10342000E3FA53E0012C05D1042D03DB16B130463D
:10343000FEF708FB4AE0012C05D1042D03DB16B191
:103440003046FEF72DFB41E0012C01D1FEF7F2FCE6
:103450003CE0012C01D1FEF7DDFC37E0012C01D16D
:10346000FEF7D6FC32E0012C02D13046FEF740FADE
:103470002CE0012C01D1FEF72FFA27E0012C01D11D
:10348000FEF710FA22E0002003464EF6EE62FF211E
:103490000090404600F01CF918E0002003464EF66C
:1034A000EE62FF210090404600F012F90EE0052C7C
:1034B00001D1FEF7E7FC09E0002003464EF6EE627C
:1034C000FF210090404600F003F900BF00BF00BF9D
:1034D0004CE60000FA010020A40100200848007812
:1034E000022803D006480078032801D10120704744
:1034F00004480078022801D10120F8E70020F6E70F
:10350000FD010020FE0100202DE9F043C1B0064678
:103510004F480088B0F5806F08DA4D480188008870
:10352000401C4B4A10804B48465405E00020484957
:10353000088041B0BDE8F08345480088042879DB65
:1035400043480088001F4349085C42287DD1404819
:103550000088C01E085C362877D13D480088801E50
:10356000085C412871D13A480088401E085C352823
:103570006BD14FF0FF35002014E03649095C41293A
:103580000ED1344A411C515C352909D1811C515C52
:10359000422905D1C11C515C362901D1054606E0FE
:1035A000411C08B22A4909881A398142E5DA00BF6C
:1035B000002D46DB26480088401B87B22549481964
:1035C00001AA3946FEF7C8FE0446002C0ADA00209C
:1035D00003464EF6EE62FF2100901F48008800F07F
:1035E00077F82DE00D2C0ADA002003464EF6EE6245
:1035F000FF2100901848008800F06AF820E0201FA2
:1036000081B201A803F0ECFD8046E01E01A9095C2F
:10361000201F01AA105C41EA0029C8450BD00020F8
:1036200003464EF6EE62FF2100900B48008800F042
:103630004FF804E009E0A1B201A8FFF77DFD00BF4B
:1036400000BF00200249088000BF00BF71E70000F2
:10365000F8010020BCD30020FA01002070B5044618
:103660000D461A480078012806D0022809D0032800
:103670000CD004280FD10FE029462046FEF7FAFDB2
:1036800022E029462046FFF783FA1DE0294620461E
:10369000FFF7A0F918E000BF042D10DB20784128C7
:1036A0000DD1607835280AD1A078422807D1E0787A
:1036B000362804D129462046FEF7DCFD03E02946E2
:1036C0002046FFF74BFA00BF00BF70BDFD01002090
:1036D0002DE9F04FADF5417D06468A4617469846DE
:1036E000CA9D0024A5222146641C81A84254B6220A
:1036F0002146641C4254320A2146641C425421462D
:10370000641C46542146641C00F801A03A0A214674
:10371000641C42542146641C47542146641C455491
:1037200002222146641C4254002D0ADDB8F1000F2C
:1037300007D081A908192A464146FDF755FD6019B1
:1037400084B2214681A803F04BFD81464FEA19223D
:103750002046611C8CB281A90A542046611C8CB29F
:1037600081A901F80090B6222046611C8CB281A983
:103770000A54A5222046611C8CB281A90A5401AAD0
:10378000214681A8FEF762F84FF6FF7000EA440B6D
:10379000594601A802F08AFE0DF5417DBDE8F08F83
:1037A00010B54FF4003004F099FF90B14FF40030A1
:1037B00004F08EFF4FF4807007F056F948B14FF4D3
:1037C000807007F049F9012007F0B6F8012001499F
:1037D000087010BD0C01002010B508F0A3F810BD52
:1037E000704710B503F0D4FE10BD000008B5304896
:1037F000006840F470002E4908602E48006840F0D0
:1038000001002C49086000BF2A48006800F002004F
:103810000028F9D000BF27480830006840F0800039
:103820002449083108600020009002E00098401C04
:10383000009000985028F9D31E480830006840F0E6
:1038400090001C49083108600020009002E00098B8
:10385000401C009000985028F9D300BF154808304C
:10386000006820F00300134908310860114800681F
:10387000114908400F4908600846006820F480207C
:10388000086000200B490831086000BF0948083073
:10389000006800200028F9D108480649091D086081
:1038A000002004490C31086009F0B0F808BD0000A0
:1038B00088ED00E000380240FFFFF6FE10300024E3
:1038C00010B52DED028B01212C4809F0FAF90128E1
:1038D00051D10121294809F0F1F901F081FE08EEEA
:1038E000100AB8EE480ADFED260A20EE200ADFEDC6
:1038F000250A80EE201A244880ED061A90ED060A6B
:10390000D0ED000A20EE200A80ED080A01F07AFED0
:1039100008EE900AB8EE680ADFED190A20EE200AD8
:10392000DFED180A80EE201A174880ED071A90ED97
:10393000070AD0ED010A20EE200A80ED090A01F005
:1039400019F912480078401C1049087008460078A0
:1039500064280FDB002008704FF480610C4805F0EC
:103960003FFDC0F10100C4B222464FF48061084817
:1039700005F0F7FC00BFBDEC028B10BD0044014018
:103980003333534000F07F45A40100200E01002096
:10399000000C024010B50121054809F092F928B148
:1039A0000121034809F08AF902F096F910BD0000E0
:1039B0000010004010B50121104809F082F9E0B173
:1039C00001210E4809F07AF90C4809F011F90C4868
:1039D0000088002811DD0A4802880A490A48FDF7D4
:1039E00003FC07480088094908800120084908703D
:1039F0000849087000200249088010BD00140040EA
:103A0000CC000020A8040020A8080020CE00002040
:103A1000D0000020D100002010B50121064809F097
:103A200050F9012806D10121034809F047F9012086
:103A30000249087010BD0000000401400D01002083
:103A400038B51A491A4809F0BFFAA8B119480068F0
:103A5000FF2802D9002017490860154809F0CEF95F
:103A6000C1B214480468601C124A10601248015523
:103A70000E490F4809F09BFA04210D4809F05AFA43
:103A800098B10C48006880B1094800680090084867
:103A90004068009000BF0948007828B90120074914
:103AA000087000200349086000BF38BD0503050009
:103AB000001001401400002098030020180000208E
:103AC00010B53249324809F07FFAF8B13148008820
:103AD0003149098888420ADA2E480488601C2D4A38
:103AE00010802E48015D2A4809F08DF90EE0002073
:103AF000284908802849088040F20731244809F005
:103B00003CFA40F20631224809F044FA24492048A0
:103B100009F05AFAA8B122491D4809F048FA40F2C2
:103B200006311B4809F029FA4FF480711D4805F051
:103B300014FC40F20531164809F02CFA00201A490D
:103B400008701A49124809F03FFAF0B1104809F01C
:103B500055F9C4B216480088B0F5806F06DA1449EA
:103B60000888411C124A118012490C54124809F06D
:103B70003FF80021104808F077FF01210E4809F0B6
:103B800045F80D4809F039F800BF10BD07030700DC
:103B900000440040DA000020D8000020A80C0020DB
:103BA0000603060000100240DC00002005030500AB
:103BB000CC000020A80400200014004010B505210E
:103BC0001A4809F0B7F9A0B119480068B0F5204FBC
:103BD0000CD2164809F012F9C1B215480268006803
:103BE000401C134B18601348815402E00F4809F041
:103BF00005F904210D4809F09DF9A8B10C480068A9
:103C000090B10A4809F0FAF80B48007860B9012031
:103C1000094908704FF44171044809F0AEF940F2C7
:103C20000531024809F0A9F910BD00000048004024
:103C300010010020781100201401002000BFFEE7D1
:103C400010B54FF4406006F033FC41F20E1006F060
:103C50002FFC0123022200210B4805F0C9FB0022A2
:103C60000221062005F0D0FE0021084608F0F4FDF0
:103C700000221146012004F0C5FC012004F028FDBB
:103C8000012004F01DFD10BD000002400FB4054BE3
:103C900010B503A9044A029800F00EF910BC5DF8B3
:103CA00014FB000009910108040200200FB47CB548
:103CB0000C0009AD01D0611E00E00021CDE900013A
:103CC000064B6A462946089800F0F6F8002C02D008
:103CD000009A002111707CBC5DF814FBBF450108FF
:103CE0007CB50C001D461646014601D0601E00E062
:103CF0000020CDE90010064B6A462946304600F008
:103D0000DBF8002C02D0009A002111707CBD00006D
:103D1000BF45010802E008C8121F08C1002AFAD1F5
:103D200070477047002001E001C1121F002AFBD13B
:103D3000704700002DE9FF5F82B00021DDE904300B
:103D4000020DDDF840B0034318D044F61050A2F243
:103D5000FF3242431514119801281FD0A5EB0B0028
:103D6000401C5FEA000A4FF000064E4FDFF8389122
:103D7000B046504615D5CAF1000413E0119801244D
:103D80004AA3012801D16FEA0B010298119AC0E9F8
:103D90000031C0E9024206B0BDE8F09FCBF100005F
:103DA000DFE704460021404A491842EB0450CDE9C0
:103DB000001012E0E00707D032463B464046494635
:103DC000FDF74AFB8046894632463B461046194677
:103DD000FDF742FB06460F466410002CEAD1DDE9F0
:103DE0000401DDE90023BAF1000F06DAFDF734FB28
:103DF00042464B46FDF730FB05E0FDF79FFB424690
:103E00004B46FDF79BFB04460E460022284BFDF770
:103E10001DFC03D84FF0FF30014607E00022254B80
:103E200020463146FDF771FAFDF7F7FB102409E053
:103E3000002C0ADB0A220023FDF736FA039B3032FE
:103E40001A55641E50EA0102F2D1641C039AC4F1AF
:103E500011031444119A012A03D0012208430DD101
:103E60000AE0084304D000204FF0110B119072E7D4
:103E7000A3EB0B056D1E0DE05B4504DD4FF000026A
:103E800005F1010504E003DA4FF00002A5F1010598
:103E9000002AECD002981199C0E90231C0E900452E
:103EA00079E70000000014400000F03F30000000FF
:103EB0000000F0430000E03F2DE9FF4F95B09A4627
:103EC000884606460025EEE1252877D100242746BE
:103ED000F94A0121039400E0044316F8013F203B16
:103EE00001FA03F01042F7D130782A2811D06FF090
:103EF0002F033078A0F13002092A16D8039A44F033
:103F0000020402EB820203EB42021044761C03908F
:103F1000EFE758F8042B0392002A03DA504244F4E6
:103F20000054039044F00204761C30782E2816D1F9
:103F300016F8010F44F004042A280DD06FF02F0268
:103F40003078A0F13003092B09D807EB870302EB87
:103F50004303C718761CF3E758F8047B761C3078C7
:103F60006C280FD006DC4C2817D068280DD06A28A2
:103F700014D104E0742810D07A280FD10DE044F455
:103F800000140AE044F4801401E044F44014727810
:103F9000824202D104F58014761C761C30786628A3
:103FA0000BD013DC582877D009DC002875D04528C1
:103FB000F6D04628F4D047281AD193E118E06328B8
:103FC00035D0642879D0652812D18BE1702873D060
:103FD00008DC6728F1D069286FD06E280DD06F28D3
:103FE00006D1ACE073282CD0752874D0782853D033
:103FF0005246179990476D1C54E1C4F302500228B1
:1040000009D003280DD0D8F8001004280DD00D6079
:1040100008F1040846E1D8F80010EA17C1E9005297
:10402000F6E7D8F800100D80F2E70D70F0E718F809
:10403000041B8DF8001000208DF80100EB460120D4
:1040400003E058F804BB4FF0FF3061074FF0000168
:1040500002D40DE009F101018946B9420FDA814528
:10406000F8DB1BF809100029F4D108E009F101017F
:1040700089468142FADB1BF809100029F6D1039822
:104080005346A0EB090721463846179A00F080FAFC
:10409000284400EB090507E044E008E10DE01BF8C7
:1040A000010B524617999047B9F10109F7D25346CF
:1040B00021463846179AF2E039E00A21C4F3025249
:1040C0004FF0000B0091022A06D058F8040BC117DC
:1040D000032A09D00AE023E008F1070020F00702D4
:1040E000F2E80201904605E000B2C117042A01D1AE
:1040F00040B2C117002906DA0A460021404261EBAE
:1041000002012D2202E0220504D52B228DF8042085
:10411000012203E0E20701D02022F7E7914657E0B1
:104120000A2100E010214FF0000B00910BE010215C
:104130004FF0000B44F004040827009103E008202E
:104140004FF0000B0090C4F30252022A05D058F839
:10415000040B0021032A08D008E008F1070020F032
:104160000702F2E80201904603E080B2042A00D17F
:10417000C0B24FF0000922072AD53278702A07D042
:10418000DDF800C08CF0100C5CEA0B0C05D00EE0E2
:1041900040228DF80420012208E050EA010306D0F5
:1041A00030238DF804308DF8052002229146009BC3
:1041B00083F0080353EA0B030AD150EA010201D14C
:1041C000620705D530228DF804204FF001097F1ECB
:1041D0003278582A04D039A20C920CAA02920BE031
:1041E0003BA2F9E75B46009AFDF75EF80C9B9B5CEF
:1041F000029A521E0292137050EA0102F2D1029802
:1042000004A9081A00F1200B600702D524F48034B9
:1042100000E001275F4502DDA7EB0B0000E0002076
:1042200000EB0B01009003984944401A0390E0030F
:1042300006D453462146179A039800F0A9F905447D
:10424000002706E001A85246C05D179990476D1CF3
:104250007F1C4F45F6DBE0030CD553462146179AE9
:10426000039800F095F9054404E030205246179970
:1042700090476D1C0099481E00900029F5DC08E06D
:104280000298029952460078491C0291179990476A
:104290006D1CBBF10001ABF1010BF1DC5BE100F047
:1042A00065F90544761C307800287FF40DAE19B00E
:1042B0002846BDE8F08F0000092801003031323374
:1042C0003435363738396162636465660000000052
:1042D000303132333435363738394142434445463C
:1042E00000000000600700D4062708F1070020F056
:1042F0000700F0E80223804603F0004C5FEA0C0060
:1043000001D097A009E0200501D596A005E0E007BF
:1043100001D095A001E0AFF24C001390307823F06B
:10432000004365280CD006DC452809D046281DD05E
:1043300047287FD13BE0662818D067287AD136E03D
:104340000021112F01DB112000E0781CCDE90001D4
:1043500004A90CA8FFF7EEFCDDE90D010C9A4FF063
:10436000000B07F10109109200914EE04FF0004060
:104370000097CDE9011004A90CA8FFF7DBFCDDE9EB
:104380000D020C9B0F994FF0000B91461093009279
:1043900011B9791C00EB0109B7EB090003D4C0F196
:1043A000FF3B07F10109A9EB0700019042E0012F53
:1043B00000DA01270021112F01DD112000E038462D
:1043C000CDE9000104A90CA8FFF7B4FCDDE90D015B
:1043D0000C9A00914FF0000BB946109221070FD4B0
:1043E000009A4A4503DA914601E0A9F10109B9F1C1
:1043F000010F05DD109AA9F10101515C3029F4D0BB
:10440000B84202DA10F1040F03DA0121CDE90110FC
:1044100010E0002803DC8344A9EB000102E0411C0A
:10442000494500DD8946A0EB0B00401C01904FF090
:1044300000400290200705D40198484502DB4FF068
:10444000FF30019000208DF84B0002980DF14B07D2
:10445000B0F1004F25D002200C902B200D90029837
:1044600000280CDA404202902D200D9007E00A212E
:104470000298FCF703FF3031029007F8011D0C99F8
:10448000481E0C900029F2DC02980028EFD1791E1A
:104490000D980870307800F0200040F0450007F8D3
:1044A000020D11A8C01BC01D02901398007800B126
:1044B000012000EB0901019801EBE0710298014431
:1044C0000398401A401E0390E00306D45346214649
:1044D000179A039800F05CF805441398007818B117
:1044E0005246179990476D1CE00323D55346214649
:1044F000179A039800F04CF805441BE0BBF1000F3D
:1045000007DB0098584504DD1098179910F80B0048
:1045100001E0179930205246904701980BF1010BAA
:10452000401E05F10105019004D12E205246179935
:1045300090476D1CB9F10001A9F10109DEDC05E02D
:1045400017F8010B5246179990476D1C0299481EA7
:1045500002900029F4DC53462146179A03989EE600
:104560002D0000002B000000200000002DE9F0418C
:10457000044600251E461746880404D405E0394643
:104580002020B0476D1C641EF9D52846BDE8F08197
:104590002DE9F041044600251E469046C80301D58A
:1045A000302700E02027880404D505E0414638463E
:1045B000B0476D1C641EF9D52846BDE8F0814A68F5
:1045C000002A06D00A68531C0B6010704868401E11
:1045D0004860704700200449087004490870044985
:1045E00081F84000704700003400002035000020B2
:1045F000A40100201F49097859B9F0EE0C0AB4EE65
:10460000E00AF1EE10FA01D2012100E00021084693
:104610000AE0DFED190AB4EEE00AF1EE10FA01DD6E
:10462000012100E00021084618B90021134A117049
:10463000704712490978491C104A11700D490978D0
:1046400019B911460978052906DA0A49097871B1BC
:104650000A49097805290ADB0649097809B90121BF
:1046600000E00021034A11700021044A117000BFCC
:10467000DEE70000340000203333734035000020B3
:10468000FF200349087000200249087070470000AD
:104690002A0000201C0000200120014908707047FA
:1046A0001C0000207047000010B52DED028B044661
:1046B000F0EE408A24B1012C1CD0022C2ED123E034
:1046C000B0EE680A00F0ACFAB0EE408AB0EE480AEC
:1046D000FFF790FF144880ED0D8A00F029F8124989
:1046E00081F84000B0EE680A00F0BEFA0E4880ED96
:1046F0000A0A14E0DFED0D0AB0EE680A00F0C2FA13
:10470000094880ED0E0A0AE0DFED080AB0EE680AFB
:1047100000F0B8FA044880ED0F0A00E000BF00BFC7
:10472000BDEC028B10BD0000A4010020EC51383E0E
:1047300001480078704700003400002070B506463C
:104740000D460024304600F04BF80443304600F09C
:104750005AF8044344F0C00444F0080444F002044E
:1047600044F480740DB144F40044204670BD70B52B
:1047700005460024284600F033F80443284600F09C
:1047800042F8044344F0C00444F4807444F4004408
:1047900044F0080444F00204204670BD70B505469C
:1047A0000C464FF480600D498862012002F0FCFE47
:1047B0004FF4014000F0C4F9284600F0C1F920464A
:1047C00000F0BEF9012002F0EFFE4FF480600349D3
:1047D0008861012002F0E8FE70BD00000010024078
:1047E000014621B1012905D0022909D105E04FF484
:1047F000804070474FF4A040FBE74FF4C040F8E71B
:104800004FF4E040F5E7014631B1012907D0022914
:1048100008D003290CD108E04FF4806070474FF4B2
:104820008060FBE74FF48060F8E74FF48060F5E7C5
:104830004FF48060F2E7000000F46061B1F5C06FF2
:1048400018D007DC69B1B1F5007F0DD0B1F5806FEC
:1048500019D10CE0B1F5006F0FD0B1F5206F12D176
:104860000EE09FED0A0A70479FED090AFBE79FEDF6
:10487000090AF8E79FED080AF5E79FED080AF2E755
:104880009FED070AEFE79FED070AECE7A69BC44000
:104890006F1283406F1203406F12833F6F12033F0A
:1048A0006F12833E6F12833D70B52DED028B04466F
:1048B0000D462846FFF7A7FF0646FFF7BDFFB0EEFF
:1048C000408A14F5004F04D1B1EE480ABDEC028BCA
:1048D00070BD00EE104AB8EEC00A68EE000A9FED07
:1048E000021A80EE810AF1E70000004770B52DED55
:1048F000068B84B00446042C09DB21461AA0FFF77E
:10490000C5F99FED230A04B0BDEC068B70BDFFF71F
:10491000C3FE204600F058F8B0EE408AFFF7B0FE24
:104920002046FFF770FF0646FFF786FF10EE105A8D
:104930002846FCF790FC41EC190B18EE100AFCF726
:104940008AFC41EC1A0B8DED029B8DED00AB1148FA
:1049500030F9143030F8140082B221460EA0FFF76F
:1049600095F9B0EE480ACEE75B4144333334345D09
:1049700020726561645F6368616E6E656C3A206287
:104980006164206368616E6E656C2025750D0A0098
:10499000000000001E0000205B4144333334345DCE
:1049A0002043482575207261773D30782530345892
:1049B000282536642920563D252E3466204653523C
:1049C0003D252E33660D0A0070B5044601212046B0
:1049D000FFF7B4FE064600F063F940F6C41002F09B
:1049E000E3FD002000F05CF905B20F4820F81450F8
:1049F00021462846FFF758FF0C4800EB840080ED65
:104A0000000A01200A490855084800EB8400D0ED4F
:104A1000000AB0EE600A2046FFF746FE034800EBAE
:104A2000840090ED000A70BD1E0000209804002054
:104A30002600002000B587B040F6044005F038FDA0
:104A400040F6044005F034FD40F6044005F030FD2A
:104A500040F6044005F02CFD41F20D1005F028FD54
:104A60004FF4806300220121334804F0C1FC4FF46D
:104A7000806302220021304804F0E1FC4FF48060A2
:104A80002D498861820005212B4804F037FC4FF442
:104A900000520521284804F031FC4FF480420521E2
:104AA000254804F02BFC4FF48053002202212248B9
:104AB00004F09EFC4FF48053022200211E4804F0B3
:104AC000BEFC4FF40053002202211B4804F090FC6E
:104AD0004FF4005302220021174804F0B0FC4FF4B9
:104AE000804300220221144804F082FC4FF48043EA
:104AF00002220021104804F0A2FC104807F0C6FD75
:104B0000684607F03AFE002001904FF48270009052
:104B10004FF400600290012005904002039028208D
:104B20000690002004906946044807F00DFE0348F3
:104B300007F0A0FD07B000BD0010024000340140A6
:104B400010B5044600BF0221094807F0F5FD002812
:104B5000F9D02146064807F096FD00BF0121044820
:104B600007F0EAFD0028F9D0014807F088FD10BDE4
:104B7000003401402DE9F0412148007808B1BDE83A
:104B8000F081204820490978455C204890F9004090
:104B90002846FFF7ECFD804600F082F80746002C1F
:104BA00019DB3EB21A4820F81460E1B23046FFF734
:104BB0007BFE184800EB840080ED000A01201649B6
:104BC0000855144901EB8401D1ED000AB0EE600AEA
:104BD000E0B2FFF769FD68B20C4908700A48007836
:104BE000401C0949087008460078032806D30020B5
:104BF00008700A480068401C0849086000BFBEE70A
:104C00001C0000207AD001082B0000202A00002080
:104C10001E00002098040020260000202C00002008
:104C200000B5F0EE401AB0EE610A00F00DF8F0EEBB
:104C3000400A9FED030A9FED031A01EE200A00BD12
:104C40001AC00B3F9565803FF0EE400A9FED041AB5
:104C500080EE810A9FED031A20EE010A70470000E2
:104C60000000B64200007A44F0EE400A9FED030ACD
:104C70009FED031A01EE200A704700003DAA83C38E
:104C800002AB1F43B0EE401AF5EEC00AF1EE10FA87
:104C900002D1B0EE410A704781EE200AFBE7000026
:104CA00070B504464FF480600A498862012002F022
:104CB0007BFC2046FFF744FF0546012002F074FC10
:104CC0004FF4806003498861012002F06DFC2846A2
:104CD00070BD000000100240816841F00801816051
:104CE00000BF816801F008010029FAD1816841F014
:104CF0000401816000BF816801F004010029FAD13C
:104D0000704730B5012902D0022920D10FE06AB1E5
:104D1000102A0BD8C36A23F47003C362C36A541EFB
:104D20004FF4700505EA04542343C36210E06AB1EE
:104D3000042A0BD8836B23F440138363836B541EC4
:104D40004FF4401505EA04542343836300E000BF99
:104D500000BF30BD0649096821F4E021054AC2F8C8
:104D600004131146D1F804130143C2F80413704729
:104D7000042301400020014021B1826842F4006216
:104D8000826003E0826822F400628260704710B59E
:104D900040F6081005F0B0FB40F6081005F09AFB4D
:104DA00010BD816841F4807181607047816841F471
:104DB000007181607047816801F0010119B9816853
:104DC00041F0010181607047F0B51D4606290CDAFB
:104DD000436B01EB81071F26BE40B34301EB810605
:104DE00002FA06F63343436322E00C290EDA036B22
:104DF0008E1F06EB86071F26BE40B3438E1F06EBB1
:104E0000860602FA06F63343036311E010290FDA2F
:104E1000C36AA1F10C0606EB86071F26BE40B3430A
:104E2000A1F10C0606EB860602FA06F63343C362CE
:104E30000A2A0CDA046902EB42070726BE40B44393
:104E400002EB420605FA06F63443046111E0122A29
:104E50000FDCC468A2F10A0606EB46070726BE402F
:104E6000B443A2F10A0606EB460605FA06F63443F9
:104E7000C460F0BD012902D002290AD104E0826891
:104E800042F08042826005E0826842F480028260E3
:104E900000E000BF00BF7047AAB101F480731BB1EE
:104EA000436843F48073436001F480631BB143683B
:104EB00043F48063436001F00203CBB1836843F0A5
:104EC0000203836014E001F480731BB1436823F490
:104ED0008073436001F480631BB1436823F48063F3
:104EE000436001F002031BB1836823F00203836077
:104EF0007047000010B572B60B480C4908600020DE
:104F000005E04FF0FF320A4941F82020401C0828F4
:104F1000F7D3BFF34F8FBFF36F8F07F07BFD00F028
:104F2000AFFF62B610BD00000010010808ED00E000
:104F300080E200E00146B1F5965F09D0B1F5165F59
:104F400008D0B1F5964F07D0B1F5E13F08D105E0A3
:104F5000112070471220FCE71320FAE71420F8E72D
:104F60001320F6E72DE9F0412DED088B88B0FFF70F
:104F700093FBFFF75FFDC82002F016FB4AF6CA411B
:104F80001220FFF70BFC00210846FFF7D7FB054670
:104F9000FFF786FE40F6C41002F006FB00240FE087
:104FA0000020B04921F814009FEDAF0AAF4800EB94
:104FB000840080ED000A0020AD490855601CC4B291
:104FC000042CEDDBFF20AB4908700020AA490870D3
:104FD000AA490860AA490870FFF7FCFAFFF750FBDE
:104FE0004FF48060FFF728FC10EE105A2846FCF7BB
:104FF00032F941EC180B4FF48060FFF71DFC10EE06
:10500000105A2846FCF727F941EC190B4FF4806041
:10501000FFF712FC10EE105A2846FCF71CF941EC81
:105020001A0B4FF48060FFF707FC10EE105A284669
:10503000FCF711F941EC1B0B8DED068B8DED049BFC
:105040008DED02AB8DED00BB4FF4FA628DA190485F
:10505000FEF71CFE9FED8F0B8DED040B9FED8D0B6E
:105060008DED020B9FED8D0B8DED000B9FED8D0BEC
:1050700053EC102B8DA0FEF709FE9FED9B0B8DEDE1
:10508000000B9FED9B0B53EC102B9BA0FEF7FEFD3E
:105090009FEDA50AB0EE408AB5EEC08AF1EE10FA97
:1050A00002D1A2A0FEF7F2FD052002909FEDAF0B0A
:1050B00003908DED000B9FEDAF0B53EC102BAF4821
:1050C000FEF7E4FDB0EE0C0AB0EE408A9FEDAC0AAC
:1050D000F0EE408AF4EEC88AF1EE10FA12D818EE1B
:1050E000100AFCF7B8F841EC190B18EE900AFCF71F
:1050F000B2F841EC1A0B8DED009B53EC1A2BA14832
:10510000FEF7C4FD1E2203219FA0FEF7BFFDADA048
:10511000FEF7BCFD002404E02046FFF7E7FB601C1F
:10512000C4B2042CF8DBFFF703FB08B1B0A000E029
:10513000B1A005464D48D0ED000AB0EE600AFFF779
:105140006FFD10EE106A3046FCF785F8884607467A
:10515000464890ED000A10EE101A0846FCF77BF85E
:1051600041EC180B53EC182BA4A0CDE90078029564
:10517000FEF78CFD3D48D0ED010AB0EE600ADFED90
:10518000A90AFFF77FFD10EE105A2846FCF763F8D6
:1051900041EC180B354890ED010A10EE101A084644
:1051A000FCF759F841EC190B9FED3A0B8DED020B12
:1051B0008DED008B53EC192B9BA0FEF767FD2B4860
:1051C000D0ED020AB0EE600ADFED960AFFF75AFD55
:1051D00010EE105A2846FCF73EF841EC180B234815
:1051E00090ED020A10EE101A0846FCF734F841EC74
:1051F000190B9FED280B8DED020B8DED008B53EC01
:10520000192B94A0FEF742FD184890ED030A10EE0A
:10521000101A0846FCF71FF841EC180B53EC182B3A
:1052200097A0FEF733FD1148D0ED000AB0EE600AFA
:10523000FFF71AFD10EE105A2846FCF70CF841EC67
:10524000180B53EC182B98A0FEF720FDFF200949FE
:10525000087000200849087008B0BDEC088BBDE854
:10526000F08100001E0000200000000098040020D3
:10527000260000202A0000202B0000202C00002007
:105280003000002073696E676C652D73686F740061
:10529000D8DD0108000000803D0AC73F0000000083
:1052A00000408F400000000000C056405B41443386
:1052B0003334345D207363616C653A20493D562F69
:1052C000252E31666F686D2A252E3066207C20568B
:1052D000303D562F252E3366207C2056313D562FEB
:1052E000252E33660D0A0000000000400378E13FE0
:1052F000000000A0B20CF03F5B4144333334345D16
:105300002069302063616C204F4E3A2049203D20B7
:10531000252E3666202A20495F726177202B2025B2
:105320002E34660D0A0000009565803F5B414433D2
:105330003334345D202A2A2A2049302043414C202E
:105340004B204953205A45524F3A2063757272657B
:105350006E742077696C6C20626520737475636B62
:105360002061742042202A2A2A0D0A0000000060D1
:1053700066660E400000000000000C402CDE0108B4
:105380003333734088DD01085B4144333334345D8B
:105390002074696D39207363616E206F6E2C202537
:1053A000752063682C20656163682072656672658C
:1053B000736865642065766572792025756D730D57
:1053C0000A0000005B4144333334345D2073656C64
:1053D0006620746573742028766F6C74202D3E20CF
:1053E000656E67696E656572696E67293A0D0A00B8
:1053F0005B42524F4B454E5D0000000020202020B4
:105400002020202020202043483020252E3466569E
:10541000202D3E20252E3366206D412025730D0A58
:1054200000000000EC51383E2020202020202020C9
:1054300020202043483120252E346656202D3E2042
:10544000252E336620562020282F252E3366290D41
:105450000A0000002020202020202020202020439F
:10546000483220252E346656202D3E20252E3366C8
:1054700020562020282F252E3366290D0A000000F3
:1054800020202020202020202020204348332025B9
:105490002E3466562020286E6F7420636F6E6E6502
:1054A00063746564290D0A0020202020202020201C
:1054B000202020505431303020252E3266204320C9
:1054C00020286C65676163792C206E6F7420677289
:1054D00061646564290D0A0000B58DB040F6024094
:1054E00004F0E6FF41F2081004F0E2FF40F6164037
:1054F00004F0DEFF032300221946354803F078FF4D
:105500004FF44030FFF726FCFFF741FC0122110267
:105510003048FFF7C1FC012202212E48FFF7BCFCF6
:1055200000212C48FFF728FC022201212948FFF71F
:10553000E8FB03230A2200212648FFF745FC03234A
:105540000B2201212348FFF73FFC2248FFF733FCE1
:10555000012002F013F81F48FFF7BEFB00211E4890
:1055600002F05EFA684602F0C5FB1A484C30009023
:10557000C014019001200290184803904FF400508D
:1055800004900020059006900790089009900A90DA
:10559000C8200B904FF400300C906A4600210E4852
:1055A00002F0F6FA002211460B4802F026FA00211A
:1055B000094802F012FA0748FFF7F3FB0548FFF726
:1055C000F5FB01210348FFF755FC0DB000BD0000BD
:1055D0000008024000200140006402400802002050
:1055E0000021002005E0064A32F810201144821CF8
:1055F00090B2C828F7DB6420B1FBF0F080B27047AE
:10560000080200200021012005E0064A32F810209F
:105610001144821C90B2C828F7DB6420B1FBF0F083
:1056200080B270470802002010B54FF4406004F0CB
:105630003FFF41F21D0004F03BFF10230022032135
:105640000E4803F0D5FE0E4801F01CFF3822002161
:105650000B4801F06AFF0021094801F059FF0022C0
:105660001146074801F075FF0021054801F02BFFA6
:105670000021034801F01AFF10BD000000000240A5
:105680000074004010B50446B4F5805F01DB40F6BD
:10569000FF74234600221146034801F0D3FE002187
:1056A000014801F028FF10BD0074004010B54FF410
:1056B000406004F0FDFE41F2041004F0F9FE4FF4E6
:1056C000C0620721234803F019FE4FF40073012242
:1056D0000221204803F08CFE4FF4007302220021C7
:1056E0001C4803F0ACFE4FF48063002211461948B9
:1056F00003F07EFE4FF4806302220321154803F07D
:105700009EFE154807F084FB0021134807F098FC23
:105710000021114807F084FC00210F4807F070FCBD
:105720004FF4E1310C4807F0F5FA04210A4807F07C
:105730006FFC0821084807F07BFC0021064807F0B1
:1057400012FC0021044807F004FC034807F0D3FBD7
:1057500010BD0000000002400010014010B5002202
:105760001146252004F050F940F20531044807F0B5
:1057700011FC4FF44171024807F00CFC10BD000011
:105780000010014070B54CF2503541F21C0004F09D
:105790008FFE41F6014004F0B9FD18B91DA0FEF7D7
:1057A00075FA70BD2B480468142001F0E7FE294803
:1057B0000068A04204D1214627A0FEF767FAF0E76F
:1057C0004FF4FA7000F00AFF08B900F0DBFE00E0C9
:1057D0006D1E06212E4807F0ADFB08B9002DF7D14C
:1057E00001F042F8012004F0BFFA43F6982603E0E6
:1057F000002004F0D1FA761E2648007808B9002E61
:10580000F6D12448007810B923A0FEF73FFA00BF74
:10581000C7E70000736C6565702061626F72746524
:10582000643A204C5854414C206E6F74207374615C
:10583000626C652C2052544320616C61726D20773C
:105840006F756C64206E6576657220666972650D91
:105850000A00000028280040736C656570206162B2
:105860006F727465643A205254432063616C656EB4
:105870006461722066726F7A656E202853532073BC
:105880007475636B206174202575290D0A00000072
:10589000001001400C010020736C6565703A2077A0
:1058A0006F6B652062792067756172642074696D21
:1058B000656F75742C2052544320616C61726D20A9
:1058C0006E65766572206669726564210D0A000056
:1058D0002DE9F04107460D461646384600F098F986
:1058E000002404E000F052F92855601C84B2B44250
:1058F000F8DB4FF40041024803F031FDBDE8F081D0
:10590000000002402DE9F05F05460F46144605F001
:10591000FF0ACAF10000C6B22046E11704EB11618C
:10592000C1F30728E11704EB11610912A4EB01216F
:1059300001F0FF09BAF1000F1ED1B8F1000F12DD1E
:105940004FF0000B0DE04FF480723946284600F00E
:105950004FF805F5807507F580770BF1010000F031
:10596000FF0BC345EFDBB9F1000F3FDD4A46394677
:10597000284600F03DF839E0A64205DB22463946CC
:10598000284600F035F831E032463946284600F026
:105990002FF837443544A01B84B22046E11704EBAE
:1059A0001161C1F30728E11704EB11610912A4EB9F
:1059B000012101F0FF094FF0000B0DE04FF4807260
:1059C0003946284600F014F805F5807507F580770C
:1059D0000BF1010000F0FF0BC345EFDBB9F1000F45
:1059E00004DD4A463946284600F002F8BDE8F09F3B
:1059F0002DE9F04104460E46174600F03BF94FF4FE
:105A00000041114803F0A9FC022000F0E5F8C4F3BE
:105A1000074000F0E1F8C4F3072000F0DDF8E0B241
:105A200000F0DAF8002504E0705D00F0D5F8681C9D
:105A300085B2BD42F8DB4FF40041034803F08FFC10
:105A400000F0FEF8BDE8F0810000024010B5044609
:105A500000F010F94FF400410C4803F07EFC2020C8
:105A600000F0BAF8C4F3074000F0B6F8C4F307201A
:105A700000F0B2F8E0B200F0AFF84FF40041034894
:105A800003F06DFC00F0DCF810BD000000000240E7
:105A900000B587B041F20C1004F00AFD40F6014059
:105AA00004F006FD4FF4406004F002FD38220521A9
:105AB000334803F023FC382300220221304803F04E
:105AC00097FC3823012200212D4803F0B8FC4FF445
:105AD0000043002201212B4803F08AFC4FF40043CD
:105AE00002220021274803F0AAFC4FF40041254878
:105AF00003F035FC002001904FF4827000900020EC
:105B0000029005904FF40070039010200690002042
:105B1000049069461C4806F017FE1B4806F0AAFDD3
:105B20004FF40041174803F018FCAB2000F054F884
:105B30004FF40041134803F012FC012001F01EFD58
:105B40004FF400410F4803F008FC662000F044F8D1
:105B50004FF400410B4803F002FC4FF400410948A8
:105B600003F0FBFB992000F037F84FF400410548A3
:105B700003F0F5FB012001F001FD07B000BD0000BE
:105B800000040240000002400030014010B5A02097
:105B900000F022F810BD000010B54FF400410D4890
:105BA00003F0DBFB9F2000F017F8A02000F014F8B2
:105BB00004462402A02000F00FF804432402A02091
:105BC00000F00AF804434FF40041024803F0C7FB19
:105BD000204610BD0000024010B5044600BF02215F
:105BE0000A4806F0A9FD0028F9D02146074806F02A
:105BF0004AFD00BF0121054806F09EFD0028F9D0AE
:105C0000024806F03CFDC0B210BD0000003001406B
:105C100010B504464FF40041084803F09EFB0320F2
:105C2000FFF7DAFFC4F30740FFF7D6FFC4F30720FE
:105C3000FFF7D2FFE0B2FFF7CFFF10BD0000024038
:105C400010B54FF400410A4803F087FB0520FFF729
:105C5000C3FF00BFA020FFF7BFFF044604F0010010
:105C60000028F7D14FF40041014803F078FB10BD44
:105C70000000024010B54FF40041064803F06DFBF0
:105C80000620FFF7A9FF4FF40041024803F067FB2D
:105C900010BD00000000024010B500F003F800F055
:105CA000C1F810BD10B540F6014004F001FC40F60B
:105CB000044004F0FDFB032301220021044803F00B
:105CC00097FB782301220021024803F091FB10BDCD
:105CD000000402400010024070B5002499E04F4AD1
:105CE00002EBC40251684D4A52F8340003F078FBCD
:105CF00008B9012000E000200546494800EB0410E7
:105D0000806890B1464800EB04108068401E44490A
:105D100001EB04118860424800EB0410806820B950
:105D200001203F4901EB041108733D4800EB0410CA
:105D3000007820B1012809D0022861D118E025B1EE
:105D40000120374901EB041108705FE055B10220D2
:105D5000334901EB041108700020314901EB0411B3
:105D6000486004E000202E4901EB041108704DE06A
:105D7000A5B12B4800EB04104068401C284901EBFA
:105D800004114860264800EB04104068A02836D96A
:105D90009720234901EB0411486030E0204800EBD4
:105DA0000410406896280AD302201D4901EB041113
:105DB000087300201A4901EB041188601AE01848A2
:105DC00000EB04104068052814D3154800EB0410BC
:105DD000806850B10320124901EB041108730020C0
:105DE0000F4901EB0411886004E02D200C4901EB00
:105DF0000411886000200A4901EB0411087005E0D5
:105E00000020074901EB0411087000BF00BF601CAF
:105E1000C4B2062CFFF663AF70BD000040DB010882
:105E2000F0B800201FB541F2040004F041FB4FF030
:105E3000807004F07FFB1720ADF800000E48029040
:105E40000020ADF80200ADF80400ADF80600694688
:105E50000A4806F0DFFE00221146362003F0D4FD8A
:105E60000121064806F0D2FE0121044806F022FF77
:105E7000024806F0C2FE1FBD9F86010000100040D0
:105E800010B540F6034004F013FB4FF47C430022AE
:105E90000121054803F0ACFA4FF47C4302220021B3
:105EA000014803F0CCFA10BD000C02402DE9F04F80
:105EB0002DED068BADB00446B0EE408AF0EE608A60
:105EC00000F032FE3F48007800F00F003D490978AD
:105ED000091101EB810100EB41063A48407800F0DE
:105EE0000F0038494978091101EB810100EB4107A6
:105EF0003448807800F00F0032498978091101EBAD
:105F0000810100EB41082F48007900F00F002D4976
:105F10000979091101EB810100EB410000F108054D
:105F20002848407900F00F0026494979091101EB12
:105F3000810100EB41092348807900F00F002149DD
:105F40008979091101EB810100EB410A182D00DB71
:105F5000183D06F5FA631CA2182127A8CDE9039A7B
:105F6000CDE900780295FDF7A1FEF0EE680AB0EEEB
:105F7000480A214627A800F0DFF818EE900AFBF740
:105F80006AF941EC190B18EE100AFBF764F941ECC1
:105F90001A0B8DED049B8DED02AB27AB12A2802175
:105FA00007A80094FDF782FE07A8FBF74DF91FFA3A
:105FB00080FB594607A800F079FA2DB0BDEC068B9E
:105FC000BDE8F08F64110020253034642D25303277
:105FD000642D2530326420253032643A2530326415
:105FE0003A2530326400000025737C25737C252E11
:105FF00032667C252E32660D0A00000010B54FF483
:10600000F82404E02046FFF721FD04F58054B4F5A0
:10601000002FF7D34FF4F8200149086010BD0000AD
:10602000EC01002002480068A0F5F82080097047C4
:10603000EC01002000B591B04FF4F8200C49086045
:106040000EE0402201A90A480068FFF741FC0198D0
:10605000401C00B909E00648006840300449086067
:1060600003480068B0F5002FEBD300BF11B000BDAE
:10607000EC0100202DE9F04391B0FFF7D3FF054676
:10608000294619A0FDF702FEFFF7CCFF044634B9FC
:1060900005211AA000F00AFA11B0BDE8F0830A2C1D
:1060A00001D90A2000E020460646002518E0601EBF
:1060B000471B01A9384600F025F801280FD103A895
:1060C000FBF7C2F81FFA80F9494603A800F0EEF981
:1060D0000FF224080221404600F0E8F900BF6D1CD1
:1060E000B542E4DB00BFD7E771756572793A20638A
:1060F0006F756E743D256C750D0A0000656D7074CA
:10610000790000002DE9F04104460D46FFF78AFFB3
:106110000646B44201D206B115B90020BDE8F081AF
:106120004FF4F82000EB8417402229463846FFF749
:10613000CFFB0120F2E7000030B52DED068B9BB0C0
:1061400004460D46B0EE408AF0EE608A18EE900AE2
:10615000FBF781F841EC190B18EE100AFBF77BF8FE
:1061600041EC1A0B8DED049B8DED02AB234607A28B
:10617000502107A80095FDF799FD07A9012000F01F
:10618000ABF81BB0BDEC068B30BD00002573207C46
:10619000202573207C20252E3266207C20252E325F
:1061A000660000002DE9F0472DED068BA0B00546F6
:1061B000B0EE408AF0EE608A00F0B6FC3948007814
:1061C00000F00F0037490978091101EB810100EB5C
:1061D00041063448407800F00F00324949780911EF
:1061E00001EB810100EB41072E48807800F00F00A1
:1061F0002C498978091101EB810100EB41082948FC
:10620000007900F00F0027490979091101EB81019C
:1062100000EB410000F108042248407900F00F0033
:1062200020494979091101EB810100EB41091D4821
:10623000807900F00F001B498979091101EB810178
:1062400000EB410A182C00DB183C06F5FA6316A295
:1062500018211AA8CDE9039ACDE900780294FDF738
:1062600025FD18EE900AFAF7F6FF41EC190B18EE2F
:10627000100AFAF7F0FF41EC1A0B8DED049B8DED3F
:1062800002AB1AAB10A2502106A80095FDF70EFD37
:1062900006A9012000F020F820B0BDEC068BBDE877
:1062A000F087000064110020253034642D25303241
:1062B000642D2530326420253032643A2530326432
:1062C0003A2530326400000025737C25737C252E2E
:1062D00032667C252E32660030B591B004460D46FC
:1062E00013480068B0F5002F01D3FFF787FEFF22A7
:1062F000402101A8FAF78AFF00F086F90190ADF875
:1063000008403722294603A8FAF792FF00218DF8AA
:106310004310402201A906480068FFF7F3FA044839
:106320000068403002490860012011B030BD000013
:10633000EC01002010B540F6014004F0B9F840F639
:10634000014004F0B5F84FF48073002201211B488E
:1063500003F04EF84FF4807303220121174803F035
:106360006EF84FF4007300220121144803F040F846
:106370004FF4007303220121104803F060F84FF43A
:1063800080710E4802F0EBFF4FF400710B4802F0F1
:10639000E6FF4FF4FA7001F0F1F8002405E0084937
:1063A000085DFCF7BAFE601CC4B2162CF7D3FCF7EC
:1063B000F5FD00210846FCF727FE10BD0004024051
:1063C000B600002010B540F6034004F071F841F229
:1063D000110004F06DF840F6044004F069F84FF441
:1063E0008073022201212D4803F002F84FF48073DC
:1063F00002220021294803F022F84FF48071274837
:1064000002F0ABFF20220721254802F077FF20236E
:1064100000220221224802F0EBFF20230222002169
:106420001F4803F00CF8402207211D4802F066FFC8
:106430004023002202211A4802F0DAFF194806F030
:10644000E7FC19480168174806F064FC002115486C
:1064500006F0F6FD0021134806F0D2FD0021114898
:1064600006F0DEFD04210F4806F0D2FD08210D489C
:1064700006F0DEFD00221146262003F0C5FA40F2A8
:106480000531084806F086FD064806F034FD04F0A4
:10649000EFF90548006804F0D3F910BD0010024080
:1064A000000C024000440040D400002070B50546B6
:1064B0000C4614B1B4F5806F00DD70BD00BF10480C
:1064C00000780028FBD101200D49087001020D4819
:1064D00002F045FF40F205310B4806F04EFD224622
:1064E00029460A48FAF780FE094804800020094935
:1064F000088040F20731044806F04CFD00BFDCE79D
:10650000DC0000200010024000440040A80C0020E5
:10651000D8000020DA00002070B504464FF6FF7561
:1065200000BF0721154806F005FD18B9281EA5F182
:106530000105F6D14FF6FF7500BF06210F4806F0A2
:10654000F9FC18B9281EA5F10105F6D10B4806F093
:10655000CDFC0B4804602146084806F0DBFB052112
:10656000064806F0CDFC0621044806F0C9FC0348A5
:1065700006F0C1FC204604F063F970BD0044004001
:10658000D400002010B540F207310F4806F0F5FCAA
:1065900040F206310C4806F0F0FC00200B49088060
:1065A0000B4908804FF480710A4802F0D6FE06219C
:1065B000054806F0A5FC40F20531034806F0EAFC68
:1065C00000200549087010BD00440040DA0000209A
:1065D000D800002000100240DC00002010B5044666
:1065E00003E0012000F0CAFF641E0648007808B1ED
:1065F000002CF6D10348007808B9012010BD002016
:10660000FCE70000DC0000202DE9F05F494804F0C1
:10661000F1F94848007800F00F004649097809115F
:1066200001EB810100EB410000F5FA64414840783C
:1066300000F00F003F494978091101EB810100EB9F
:106640004100C6B23B48807800F00F003949897894
:10665000091101EB810100EB410000F0FF09354811
:10666000007900F00F0033490979091101EB81012C
:1066700000EB4100C5B22F48407900F00F002D49D2
:106680004979091101EB810100EB410000F0FF0A9B
:106690002848807900F00F0026498979091101EB1B
:1066A000810100EB410000F0FF0B22480069402807
:1066B0000FD12048C068B0F5800F04D10C2D02D056
:1066C00005F10C00C5B21B48C06810B90C2D00D1F3
:1066D0000025032E04DA06F10C00C6B2601E84B257
:1066E000642194FBF1F1E21704EB9272921040F2F4
:1066F0006D1303FB0422511A4FF4C87294FBF2F29B
:1067000011440D4A32F8162011444944491E0B4ADF
:106710008F1A0B487843C5EB4511C1EB052100EBFF
:106720000110CAEB0A1100EB810000EB0B08404698
:10673000BDE8F09F6411002016DB01086CFA0A0026
:106740008051010010B541F21C0003F0B1FE03F0CE
:1067500001FB1C48006843F2F021884207D100F099
:106760006FF819A0FDF792FA00F0DEF910BD00F005
:1067700067F87F201B490881FF2048812620087088
:106780000320C870062048700320887040200861EC
:106790000004C860062008712920487188710846E5
:1067A00004F06CF918B910A0FDF770FA08E019A010
:1067B000FDF76CFA00F0B8F943F2F02001490860E7
:1067C00000BFD3E750280040525443206973206132
:1067D0006C72656164792072756E6E696E672E0ADF
:1067E0000D000000641100200A0D2A2A2052544393
:1067F0002074696D6520636F6E6669677572617478
:10680000696F6E206661696C656421202A2A0A0D11
:10681000000000000A0D2A2A205254432074696D9A
:106820006520636F6E66696775726174696F6E204B
:106830007375636365737321202A2A0A0D000000B3
:1068400010B54FF4E05003F073FD4FF4E05003F047
:1068500081FD4FF4807003F061FE41F60F4003F0BC
:1068600027FE04F0C5F910BD30B585B000202949D8
:106870000870684604F0BEF89DF8060000F00F00AE
:106880009DF80610091101EB810100EB4100C5B232
:1068900005F10A003C2190FBF1F201FB1200C4B2A9
:1068A000012004F049F81C481C4908600020486099
:1068B000012008720020C860487288720A2094FB88
:1068C000F0F100FB11400A2194FBF1F140EA0110C4
:1068D0001249C872012003F0FDFF4FF4807004F0EC
:1068E000BBF84FF4003001F0F3FE4FF4805004F099
:1068F00061F9012004F060F8002211464FF40030E5
:1069000001F080FE00221146292003F07DF805B039
:1069100030BD00000C010020008080805411002058
:106920002DE9F34F83B0074640F2B2740498C0EBF0
:106930004011C1EB002007EB00177048B7FBF0F6E1
:10694000B7FBF0F100FB11784FF46160B8FBF0F099
:1069500000F0FF0A4FF46160B8FBF0F100FB11801A
:106960003C21B0FBF1F000F0FF0B3C20B8FBF0F154
:1069700000FB11800290301D0721B0FBF1F201FBFA
:1069800012000190019808B90720019021E02046EB
:10699000E21704EB92729210A4EB82022AB96422ED
:1069A00094FBF2F302FB134232B94FF4C87294FB2A
:1069B000F2F302FB134212B94FF4B77201E040F256
:1069C0006D1211468E4200D204E0761A601C84B229
:1069D00000BFDCE700BF00251FE04948415D012DF5
:1069E00014D1E21704EB92729210A4EB82022AB93E
:1069F000642294FBF2F302FB134232B94FF4C872E3
:106A000094FBF2F302FB134202B91D218E4200D225
:106A100004E0761A681CC5B200BFDEE700BF681C40
:106A2000C5B2701C00F0FF09642094FBF0F100FB7C
:106A300011400A2190FBF1F201FB1200642194FB4A
:106A4000F1F201FB12410A2291FBF2F140EA01103E
:106A50002C4908700A2095FBF0F100FB11500A2127
:106A600095FBF1F140EA0110264948700A2099FB94
:106A7000F0F100FB11900A2199FBF1F140EA0110BD
:106A8000204988700198C8700A209AFBF0F100FB39
:106A900011A00A219AFBF1F140EA0110194908718D
:106AA0000A209BFBF0F100FB11B00A219BFBF1F1E6
:106AB00040EA0110134948710A21029890FBF1F253
:106AC00001FB12010A2290FBF2F041EA00100D498D
:106AD000887100200861C860084603F0CFFF30B914
